{
  "address": "0x564E992eF4123eb6b1501E26E67C4236e1d883Ee",
  "abi": [
    {
      "inputs": [
        {
          "internalType": "contract Characters",
          "name": "characters",
          "type": "address"
        }
      ],
      "stateMutability": "nonpayable",
      "type": "constructor"
    },
    {
      "anonymous": false,
      "inputs": [
        {
          "indexed": true,
          "internalType": "address",
          "name": "player",
          "type": "address"
        },
        {
          "indexed": true,
          "internalType": "uint256",
          "name": "characterID",
          "type": "uint256"
        }
      ],
      "name": "CharacterEnterTheDungeon",
      "type": "event"
    },
    {
      "anonymous": false,
      "inputs": [
        {
          "indexed": true,
          "internalType": "uint256",
          "name": "characterID",
          "type": "uint256"
        },
        {
          "indexed": true,
          "internalType": "uint256",
          "name": "position",
          "type": "uint256"
        },
        {
          "indexed": false,
          "internalType": "uint8",
          "name": "life",
          "type": "uint8"
        },
        {
          "indexed": false,
          "internalType": "uint256",
          "name": "gold",
          "type": "uint256"
        },
        {
          "indexed": false,
          "internalType": "bytes32",
          "name": "equipment",
          "type": "bytes32"
        },
        {
          "indexed": false,
          "internalType": "uint16",
          "name": "combatStanceAvailable",
          "type": "uint16"
        }
      ],
      "name": "CharacterUpdate",
      "type": "event"
    },
    {
      "anonymous": false,
      "inputs": [
        {
          "indexed": true,
          "internalType": "uint256",
          "name": "characterID",
          "type": "uint256"
        },
        {
          "indexed": true,
          "internalType": "uint32",
          "name": "epoch",
          "type": "uint32"
        },
        {
          "indexed": false,
          "internalType": "bytes24",
          "name": "commitmentHash",
          "type": "bytes24"
        }
      ],
      "name": "CommitmentMade",
      "type": "event"
    },
    {
      "anonymous": false,
      "inputs": [
        {
          "indexed": true,
          "internalType": "uint256",
          "name": "characterID",
          "type": "uint256"
        },
        {
          "indexed": true,
          "internalType": "uint32",
          "name": "epoch",
          "type": "uint32"
        },
        {
          "indexed": true,
          "internalType": "bytes24",
          "name": "commitmentHash",
          "type": "bytes24"
        },
        {
          "components": [
            {
              "internalType": "uint256",
              "name": "position",
              "type": "uint256"
            },
            {
              "internalType": "bool",
              "name": "pickTreasure",
              "type": "bool"
            }
          ],
          "indexed": false,
          "internalType": "struct Dungeon.Action[]",
          "name": "actions",
          "type": "tuple[]"
        },
        {
          "indexed": false,
          "internalType": "bytes24",
          "name": "furtherActions",
          "type": "bytes24"
        }
      ],
      "name": "CommitmentResolved",
      "type": "event"
    },
    {
      "anonymous": false,
      "inputs": [
        {
          "indexed": true,
          "internalType": "uint256",
          "name": "characterID",
          "type": "uint256"
        },
        {
          "indexed": true,
          "internalType": "uint32",
          "name": "epoch",
          "type": "uint32"
        }
      ],
      "name": "CommitmentVoid",
      "type": "event"
    },
    {
      "anonymous": false,
      "inputs": [
        {
          "indexed": true,
          "internalType": "uint256",
          "name": "epoch",
          "type": "uint256"
        },
        {
          "indexed": false,
          "internalType": "bytes32",
          "name": "epochHash",
          "type": "bytes32"
        }
      ],
      "name": "EpochHashUpdate",
      "type": "event"
    },
    {
      "anonymous": false,
      "inputs": [
        {
          "indexed": true,
          "internalType": "uint256",
          "name": "characterID",
          "type": "uint256"
        },
        {
          "indexed": true,
          "internalType": "uint256",
          "name": "position",
          "type": "uint256"
        },
        {
          "indexed": true,
          "internalType": "uint256",
          "name": "epoch",
          "type": "uint256"
        }
      ],
      "name": "MonsterClaim",
      "type": "event"
    },
    {
      "anonymous": false,
      "inputs": [
        {
          "indexed": true,
          "internalType": "uint256",
          "name": "position",
          "type": "uint256"
        },
        {
          "indexed": true,
          "internalType": "uint256",
          "name": "epoch",
          "type": "uint256"
        }
      ],
      "name": "MonsterDefeat",
      "type": "event"
    },
    {
      "anonymous": false,
      "inputs": [
        {
          "indexed": true,
          "internalType": "uint256",
          "name": "position",
          "type": "uint256"
        },
        {
          "indexed": false,
          "internalType": "bytes32",
          "name": "goldBattle",
          "type": "bytes32"
        },
        {
          "indexed": false,
          "internalType": "bytes32",
          "name": "monsterBattle",
          "type": "bytes32"
        }
      ],
      "name": "RoomUpdate",
      "type": "event"
    },
    {
      "anonymous": false,
      "inputs": [
        {
          "indexed": false,
          "internalType": "uint256",
          "name": "newTime",
          "type": "uint256"
        },
        {
          "indexed": false,
          "internalType": "uint256",
          "name": "delta",
          "type": "uint256"
        }
      ],
      "name": "TimeIncreased",
      "type": "event"
    },
    {
      "inputs": [
        {
          "internalType": "uint256",
          "name": "",
          "type": "uint256"
        }
      ],
      "name": "characters",
      "outputs": [
        {
          "internalType": "uint256",
          "name": "position",
          "type": "uint256"
        },
        {
          "internalType": "uint256",
          "name": "gold",
          "type": "uint256"
        },
        {
          "internalType": "uint8",
          "name": "life",
          "type": "uint8"
        },
        {
          "internalType": "bytes32",
          "name": "equipment",
          "type": "bytes32"
        },
        {
          "internalType": "uint16",
          "name": "combatStanceAvailable",
          "type": "uint16"
        }
      ],
      "stateMutability": "view",
      "type": "function"
    },
    {
      "inputs": [
        {
          "internalType": "uint256",
          "name": "",
          "type": "uint256"
        }
      ],
      "name": "commitments",
      "outputs": [
        {
          "internalType": "bytes24",
          "name": "hash",
          "type": "bytes24"
        },
        {
          "internalType": "uint32",
          "name": "epoch",
          "type": "uint32"
        }
      ],
      "stateMutability": "view",
      "type": "function"
    },
    {
      "inputs": [
        {
          "internalType": "bytes32",
          "name": "roomHashData",
          "type": "bytes32"
        },
        {
          "internalType": "bytes32",
          "name": "roomHashData2",
          "type": "bytes32"
        }
      ],
      "name": "computeRoom",
      "outputs": [
        {
          "components": [
            {
              "internalType": "bool[4]",
              "name": "exits",
              "type": "bool[4]"
            },
            {
              "internalType": "bool",
              "name": "treasure",
              "type": "bool"
            },
            {
              "internalType": "bool",
              "name": "monster",
              "type": "bool"
            }
          ],
          "internalType": "struct Dungeon.Room",
          "name": "",
          "type": "tuple"
        }
      ],
      "stateMutability": "pure",
      "type": "function"
    },
    {
      "inputs": [],
      "name": "enter",
      "outputs": [],
      "stateMutability": "payable",
      "type": "function"
    },
    {
      "inputs": [
        {
          "internalType": "uint256",
          "name": "",
          "type": "uint256"
        },
        {
          "internalType": "uint256",
          "name": "",
          "type": "uint256"
        }
      ],
      "name": "goldBattles",
      "outputs": [
        {
          "internalType": "uint256",
          "name": "currentWinner",
          "type": "uint256"
        },
        {
          "internalType": "uint16",
          "name": "combatStance",
          "type": "uint16"
        }
      ],
      "stateMutability": "view",
      "type": "function"
    },
    {
      "inputs": [
        {
          "internalType": "uint256",
          "name": "delta",
          "type": "uint256"
        }
      ],
      "name": "increaseTime",
      "outputs": [],
      "stateMutability": "nonpayable",
      "type": "function"
    },
    {
      "inputs": [
        {
          "internalType": "uint256",
          "name": "characterID",
          "type": "uint256"
        },
        {
          "internalType": "bytes24",
          "name": "commitmentHash",
          "type": "bytes24"
        }
      ],
      "name": "makeCommitment",
      "outputs": [],
      "stateMutability": "nonpayable",
      "type": "function"
    },
    {
      "inputs": [
        {
          "internalType": "uint256",
          "name": "",
          "type": "uint256"
        },
        {
          "internalType": "uint256",
          "name": "",
          "type": "uint256"
        }
      ],
      "name": "monsterBattles",
      "outputs": [
        {
          "internalType": "uint256",
          "name": "life",
          "type": "uint256"
        }
      ],
      "stateMutability": "view",
      "type": "function"
    },
    {
      "inputs": [
        {
          "internalType": "uint256",
          "name": "",
          "type": "uint256"
        }
      ],
      "name": "monsterClaims",
      "outputs": [
        {
          "internalType": "uint256",
          "name": "",
          "type": "uint256"
        }
      ],
      "stateMutability": "view",
      "type": "function"
    },
    {
      "inputs": [
        {
          "internalType": "uint256",
          "name": "",
          "type": "uint256"
        }
      ],
      "name": "owners",
      "outputs": [
        {
          "internalType": "address",
          "name": "",
          "type": "address"
        }
      ],
      "stateMutability": "view",
      "type": "function"
    },
    {
      "inputs": [
        {
          "internalType": "contract Characters",
          "name": "charactersCollection",
          "type": "address"
        }
      ],
      "name": "postUpgrade",
      "outputs": [],
      "stateMutability": "nonpayable",
      "type": "function"
    },
    {
      "inputs": [
        {
          "internalType": "uint256",
          "name": "characterID",
          "type": "uint256"
        },
        {
          "internalType": "bytes32",
          "name": "secret",
          "type": "bytes32"
        },
        {
          "components": [
            {
              "internalType": "uint256",
              "name": "position",
              "type": "uint256"
            },
            {
              "internalType": "bool",
              "name": "pickTreasure",
              "type": "bool"
            }
          ],
          "internalType": "struct Dungeon.Action[]",
          "name": "actions",
          "type": "tuple[]"
        },
        {
          "internalType": "uint16",
          "name": "combatStance",
          "type": "uint16"
        },
        {
          "internalType": "bytes24",
          "name": "furtherActions",
          "type": "bytes24"
        }
      ],
      "name": "resolve",
      "outputs": [],
      "stateMutability": "nonpayable",
      "type": "function"
    },
    {
      "inputs": [
        {
          "internalType": "uint256",
          "name": "id",
          "type": "uint256"
        }
      ],
      "name": "roomCoords",
      "outputs": [
        {
          "internalType": "int32",
          "name": "x",
          "type": "int32"
        },
        {
          "internalType": "int32",
          "name": "y",
          "type": "int32"
        }
      ],
      "stateMutability": "pure",
      "type": "function"
    },
    {
      "inputs": [
        {
          "internalType": "bytes32",
          "name": "epochHash",
          "type": "bytes32"
        },
        {
          "internalType": "uint256",
          "name": "id",
          "type": "uint256"
        }
      ],
      "name": "roomHash",
      "outputs": [
        {
          "internalType": "bytes32",
          "name": "",
          "type": "bytes32"
        }
      ],
      "stateMutability": "pure",
      "type": "function"
    },
    {
      "inputs": [
        {
          "internalType": "uint32",
          "name": "epoch",
          "type": "uint32"
        },
        {
          "internalType": "uint256",
          "name": "id",
          "type": "uint256"
        }
      ],
      "name": "roomHash",
      "outputs": [
        {
          "internalType": "bytes32",
          "name": "",
          "type": "bytes32"
        }
      ],
      "stateMutability": "view",
      "type": "function"
    },
    {
      "inputs": [
        {
          "internalType": "uint32",
          "name": "epoch",
          "type": "uint32"
        },
        {
          "internalType": "int32",
          "name": "x",
          "type": "int32"
        },
        {
          "internalType": "int32",
          "name": "y",
          "type": "int32"
        }
      ],
      "name": "roomHash",
      "outputs": [
        {
          "internalType": "bytes32",
          "name": "",
          "type": "bytes32"
        }
      ],
      "stateMutability": "view",
      "type": "function"
    },
    {
      "inputs": [
        {
          "internalType": "int32",
          "name": "x",
          "type": "int32"
        },
        {
          "internalType": "int32",
          "name": "y",
          "type": "int32"
        }
      ],
      "name": "roomID",
      "outputs": [
        {
          "internalType": "uint256",
          "name": "",
          "type": "uint256"
        }
      ],
      "stateMutability": "pure",
      "type": "function"
    },
    {
      "inputs": [],
      "name": "timestamp",
      "outputs": [
        {
          "internalType": "uint256",
          "name": "",
          "type": "uint256"
        }
      ],
      "stateMutability": "view",
      "type": "function"
    }
  ],
  "transactionHash": "0x8cb8bd1e64f3a34517160b17e7099396cdb0c095e82649d26ccc352eb7d1c213",
  "args": [
    "0x87730146F51166f7Cada789B90A221A82380B02c"
  ],
  "numDeployments": 1,
  "solcInputHash": "5e1fc04bd88226eb88a76b669800e2a4",
  "bytecode": "0x60a060405234801562000010575f80fd5b506040516200285b3803806200285b8339810160408190526200003391620002f1565b6001600160a01b038116608052806200004c8162000054565b505062000416565b5f6200006c5f805160206200281b8339815191525490565b90506001600160a01b0381166200009b576001600160a01b035f805160206200281b83398151915255620000b0565b336001600160a01b03821614620000b0575f80fd5b6080516001600160a01b0316826001600160a01b031614620001195760405162461bcd60e51b815260206004820152601c60248201527f636861726163746572546f6b656e7320697320696d6d757461626c650000000060448201526064015b60405180910390fd5b5f806200012562000154565b915091506200014e816200013a578262000147565b6200014760018462000334565b5f62000216565b50505050565b5f80620151808162000165620002b6565b1015620001a85760405162461bcd60e51b815260206004820152601060248201526f11d0535157d393d517d4d5105495115160821b604482015260640162000110565b5f80620001b4620002b6565b620001c091906200035b565b9050620001ce82826200038b565b620001db906001620003a1565b93506201437082620001ef60018762000334565b63ffffffff16620002019190620003b7565b6200020d90836200035b565b10925050509091565b62000223600283620003d1565b63ffffffff165f036200027957600780548218905562000245826001620003f6565b63ffffffff165f805160206200283b8339815191526007546040516200026d91815260200190565b60405180910390a25050565b60068054821890556200028e826001620003f6565b63ffffffff165f805160206200283b8339815191526006546040516200026d91815260200190565b5f620002e07f0112c413de07a110ce0a9ace0c01e41b5b59462770325b042f0dc72c337f55f25490565b620002ec9042620003a1565b905090565b5f6020828403121562000302575f80fd5b81516001600160a01b038116811462000319575f80fd5b9392505050565b634e487b7160e01b5f52601160045260245ffd5b63ffffffff82811682821603908082111562000354576200035462000320565b5092915050565b8181038181111562000371576200037162000320565b92915050565b634e487b7160e01b5f52601260045260245ffd5b5f826200039c576200039c62000377565b500490565b8082018082111562000371576200037162000320565b808202811582820484141762000371576200037162000320565b5f63ffffffff80841680620003ea57620003ea62000377565b92169190910692915050565b63ffffffff81811683821601908082111562000354576200035462000320565b6080516123e5620004365f395f8181610cfb0152610ebe01526123e55ff3fe608060405260043610610123575f3560e01c80634b7efbfc116100a1578063a67f678f11610071578063c79b243011610057578063c79b243014610480578063d0ff23421461049f578063e97dcb62146104be575f80fd5b8063a67f678f14610435578063b80777ea1461046c575f80fd5b80634b7efbfc14610369578063558f546b146103bf57806368a611f4146103ea578063990d9bc714610409575f80fd5b806329a06c26116100f657806340b968df116100dc57806340b968df146102605780634810bc591461027f57806349ce899714610304575f80fd5b806329a06c261461020b5780633c9a2a1a14610241575f80fd5b8063025e7c27146101275780630e74dc9f146101785780631c1c1707146101bd5780631d5b108d146101ea575b5f80fd5b348015610132575f80fd5b5061015b610141366004611c89565b60046020525f90815260409020546001600160a01b031681565b6040516001600160a01b0390911681526020015b60405180910390f35b348015610183575f80fd5b506101a3610192366004611c89565b63ffffffff81169160209190911c90565b60408051600393840b81529190920b60208201520161016f565b3480156101c8575f80fd5b506101dc6101d7366004611ca0565b6104c6565b60405190815260200161016f565b3480156101f5575f80fd5b50610209610204366004611cee565b6104f5565b005b348015610216575f80fd5b506101dc610225366004611ca0565b600160209081525f928352604080842090915290825290205481565b34801561024c575f80fd5b5061020961025b366004611c89565b6108d4565b34801561026b575f80fd5b5061020961027a366004611d8f565b6109ec565b34801561028a575f80fd5b506102d0610299366004611c89565b600360208190525f9182526040909120805460018201546002830154938301546004909301549193909260ff9091169161ffff1685565b60408051958652602086019490945260ff90921692840192909252606083019190915261ffff16608082015260a00161016f565b34801561030f575f80fd5b5061034361031e366004611c89565b60056020525f908152604090819020549081901b90600160c01b900463ffffffff1682565b6040805167ffffffffffffffff19909316835263ffffffff90911660208301520161016f565b348015610374575f80fd5b506103a7610383366004611ca0565b5f6020818152928152604080822090935290815220805460019091015461ffff1682565b6040805192835261ffff90911660208301520161016f565b3480156103ca575f80fd5b506101dc6103d9366004611c89565b60026020525f908152604090205481565b3480156103f5575f80fd5b506101dc610404366004611dcc565b610afe565b348015610414575f80fd5b50610428610423366004611ca0565b610b36565b60405161016f9190611df4565b348015610440575f80fd5b506101dc61044f366004611e50565b67ffffffff00000000602082901b1663ffffffff83160192915050565b348015610477575f80fd5b506101dc610c6f565b34801561048b575f80fd5b5061020961049a366004611e78565b610c7d565b3480156104aa575f80fd5b506101dc6104b9366004611ea5565b610dad565b610209610dce565b604080516020808201859052818301849052825180830384018152606090920190925280519101205b92915050565b5f868152600560205260408120908061050c610fbe565b9150915080156105635760405162461bcd60e51b815260206004820152601260248201527f494e5f434f4d4d4954494e475f5048415345000000000000000000000000000060448201526064015b60405180910390fd5b8254600160c01b900463ffffffff165f036105c05760405162461bcd60e51b815260206004820152601260248201527f4e4f5448494e475f544f5f5245534f4c56450000000000000000000000000000604482015260640161055a565b825463ffffffff838116600160c01b90920416146106205760405162461bcd60e51b815260206004820152600d60248201527f494e56414c49445f65706f636800000000000000000000000000000000000000604482015260640161055a565b8254604080516020808a028201810183528982526106829390921b918b91908b908b9081905f9085015b828210156106765761066760408302860136819003810190611ee5565b8152602001906001019061064a565b5050505050888861107b565b61068c82896111c3565b5f89815260036020818152604092839020835160a08101855281548152600182015492810192909252600281015460ff169382019390935290820154606082015260049091015461ffff908116608083018190529087168117146107325760405162461bcd60e51b815260206004820152601560248201527f494e56414c49445f434f4d4241545f5354414e43450000000000000000000000604482015260640161055a565b608081018051871861ffff16905280515f9061076090610753908690610afe565b8351610423905f906104c6565b90505f5b8881101561085e575f8a8a8381811061077f5761077f611f49565b9050604002018036038101906107959190611ee5565b90505f6107b56107a888845f0151610afe565b8651610423905f906104c6565b855183519192506107c89186908461127e565b15610801578151855260208201519093508390156107fc578360200151156107fc576107fc8763ffffffff168f878d611387565b610849565b60405162461bcd60e51b815260206004820152600c60248201527f696e76616c6964206d6f76650000000000000000000000000000000000000000604482015260640161055a565b5050808061085690611f71565b915050610764565b506108bd8b85878c8c808060200260200160405190810160405280939291908181526020015f905b828210156108b2576108a360408302860136819003810190611ee5565b81526020019060010190610886565b50505050508a611548565b6108c78b8361160b565b5050505050505050505050565b7fb53127684a568b3173ae13b9f8a6016e243e63b6e8ee1178d6a717850b5d610354336001600160a01b0382161461094e5760405162461bcd60e51b815260206004820152600960248201527f4e4f545f41444d494e0000000000000000000000000000000000000000000000604482015260640161055a565b5f826109787f0112c413de07a110ce0a9ace0c01e41b5b59462770325b042f0dc72c337f55f25490565b6109829190611f89565b9050807f0112c413de07a110ce0a9ace0c01e41b5b59462770325b042f0dc72c337f55f2557f36e7cd7cbe0c64c4f819149d7127212cc2ebb56e948ae958ef18f6d1535871c96109d06116b7565b60408051918252602082018690520160405180910390a1505050565b5f828152600460205260409020546001600160a01b03163314610a515760405162461bcd60e51b815260206004820152600960248201527f4e4f545f4f574e45520000000000000000000000000000000000000000000000604482015260640161055a565b5f82815260036020818152604092839020835160a08101855281548152600182015492810192909252600281015460ff1693820184905291820154606082015260049091015461ffff16608082015290610aef5760405162461bcd60e51b815260040161055a9060208082526004908201527f4445414400000000000000000000000000000000000000000000000000000000604082015260600190565b610af983836116ea565b505050565b5f80610b0b600285611fb0565b63ffffffff1615610b1e57600754610b22565b6006545b9050610b2e81846104c6565b949350505050565b610b3e611c45565b5f610b4b845f60026119b0565b90505f600a610b5d86600260056119b0565b60ff161090505f610b7186600760026119b0565b90505f828015610b84575060038260ff16105b610b8f576004610b91565b815b90505f6014610ba3886009600a6119b0565b1090505f610bb489601360076119b0565b90505f82610bc85760018260ff1610610bd0565b601e8260ff16105b6040805160e0810190915290915080606081018060ff8b161580610bf5575060ff8816155b15158152602001600160ff8c161480610c1157508760ff166001145b15158152602001600260ff8c161480610c2d57508760ff166002145b15158152602001600360ff8c161480610c4957508760ff166003145b151590528152931515602085015290151560409093019290925250979650505050505050565b5f610c786116b7565b905090565b5f610ca67fb53127684a568b3173ae13b9f8a6016e243e63b6e8ee1178d6a717850b5d61035490565b90506001600160a01b038116610ce5576001600160a01b037fb53127684a568b3173ae13b9f8a6016e243e63b6e8ee1178d6a717850b5d610355610cf9565b336001600160a01b03821614610cf9575f80fd5b7f00000000000000000000000000000000000000000000000000000000000000006001600160a01b0316826001600160a01b031614610d7a5760405162461bcd60e51b815260206004820152601c60248201527f636861726163746572546f6b656e7320697320696d6d757461626c6500000000604482015260640161055a565b5f80610d84610fbe565b91509150610da781610d965782610da1565b610da1600184611fd2565b5f6111c3565b50505050565b5f610b2e8463ffffffff8516602085901b67ffffffff000000001601610afe565b3466038d7ea4c6800014610e245760405162461bcd60e51b815260206004820152601060248201527f47495645204d4520544845204b57454900000000000000000000000000000000604482015260640161055a565b335f818152600460205260409020546001600160a01b031615610e895760405162461bcd60e51b815260206004820152600a60248201527f414c52454144595f494e00000000000000000000000000000000000000000000604482015260640161055a565b6040517f94bf804d000000000000000000000000000000000000000000000000000000008152600481018290523060248201527f00000000000000000000000000000000000000000000000000000000000000006001600160a01b0316906394bf804d906044015f604051808303815f87803b158015610f07575f80fd5b505af1158015610f19573d5f803e3d5ffd5b5050505f8281526004602052604080822080547fffffffffffffffffffffffff00000000000000000000000000000000000000001633908117909155905184935090917f88f44981dd7340873ce645fff36fd047197026d64ffa5145d62684dac489859391a3610fbb816040518060a001604052805f81526020015f8152602001600360ff1681526020015f801b81526020016101ff61ffff1681525061160b565b50565b5f806201518081610fcd6116b7565b101561101b5760405162461bcd60e51b815260206004820152601060248201527f47414d455f4e4f545f5354415254454400000000000000000000000000000000604482015260640161055a565b5f806110256116b7565b61102f9190611ff6565b905061103b8282612009565b611046906001611f89565b93506201437082611058600187611fd2565b63ffffffff16611068919061201c565b6110729083611ff6565b10925050509091565b67ffffffffffffffff19811615611127575f848484846040516020016110a49493929190612079565b6040516020818303038152906040528051906020012090508067ffffffffffffffff19168667ffffffffffffffff1916146111215760405162461bcd60e51b815260206004820152601160248201527f484153485f4e4f545f4d41544348494e47000000000000000000000000000000604482015260640161055a565b506111bc565b5f84848460405160200161113d939291906120b7565b6040516020818303038152906040528051906020012090508067ffffffffffffffff19168667ffffffffffffffff1916146111ba5760405162461bcd60e51b815260206004820152601160248201527f484153485f4e4f545f4d41544348494e47000000000000000000000000000000604482015260640161055a565b505b5050505050565b6111ce600283611fb0565b63ffffffff165f036112325760078054821890556111ed8260016120e3565b63ffffffff167fec99e9b645e0d752776aecb3a31c64ae23b491afeae29a072a0eaa66aa9a386260075460405161122691815260200190565b60405180910390a25050565b60068054821890556112458260016120e3565b63ffffffff167fec99e9b645e0d752776aecb3a31c64ae23b491afeae29a072a0eaa66aa9a386260065460405161122691815260200190565b5f63ffffffff85811690602087811c9186169086901c600384810b9083900b1480156112af57508060030b8360030b145b156112ff576112f26040518060400160405280600481526020017f73616d65000000000000000000000000000000000000000000000000000000008152506119cc565b6001945050505050610b2e565b5f61130c85858585611a3d565b90508060ff16600403611326575f95505050505050610b2e565b885160ff82166004811061133c5761133c611f49565b602002015180611379575086516004611356836002612100565b6113609190612119565b60ff166004811061137357611373611f49565b60200201515b9a9950505050505050505050565b5f848152602081815260408083208551845282528083208151808301909252805482526001015461ffff1691810182905291036113ef5760208301516113d590670de0b6b3a7640000611f89565b60208085019190915284825261ffff831690820152611509565b5f6113fe838360200151611ad4565b90505f815f0b126114ed578151156114a05781515f90815260036020818152604092839020835160a081018552815481526001820154928101839052600282015460ff169481019490945291820154606084015260049091015461ffff16608083015261147490670de0b6b3a764000090611ff6565b6020820152604081015161148a9060019061213a565b60ff166040820152825161149e908261160b565b505b5f815f0b13156114db5760208401516114c190670de0b6b3a7640000611f89565b60208086019190915285835261ffff841690830152611507565b5f825261ffff83166020830152611507565b600184604001516114fe919061213a565b60ff1660408501525b505b5f9485526020858152604080872094518752938152929094208451815593909101516001909301805461ffff191661ffff909416939093179092555050565b825460401b67ffffffffffffffff1982161561158f5783547fffffffffffffffff00000000000000000000000000000000000000000000000016604083901c1784556115b6565b83547fffffffff00000000ffffffffffffffffffffffffffffffffffffffffffffffff1684555b8067ffffffffffffffff19168563ffffffff16877fe9c231e32489c1cd453cdf7bb6f012ba9367c3bd0274d7d3477a3229117fe55886866040516115fb929190612153565b60405180910390a4505050505050565b5f82815260036020818152604092839020845180825585830151600183018190558686015160028401805460ff191660ff90921691821790556060808901519685018790556080808a01516004909601805461ffff191661ffff90971696871790558851928352958201929092529586019490945292840152909184917fbe3976e28d32740b80f18f5801a0f37dfe790989037762b6fab681180c759eba910160405180910390a35050565b5f6116e07f0112c413de07a110ce0a9ace0c01e41b5b59462770325b042f0dc72c337f55f25490565b610c789042611f89565b5f8281526005602052604081209080611701610fbe565b915091506117436040518060400160405280600581526020017f65706f63680000000000000000000000000000000000000000000000000000008152506119cc565b6117528263ffffffff16611b61565b8254600160c01b900463ffffffff16158015906117805750825463ffffffff838116600160c01b9092041614155b15611863575f85815260036020526040808220600201805460ff1916905584547fffffffff00000000ffffffffffffffffffffffffffffffffffffffffffffffff1685555163ffffffff84169187917f55bcfb749765e4f29e47e536e89cd7ecd421104fe2f6b756e96fd255aa623a339190a35f8581526003602081815260408084208054600282015460018301549290950154835160ff90961686529385019190915290830191909152606082019290925286907fbe3976e28d32740b80f18f5801a0f37dfe790989037762b6fab681180c759eba9060800160405180910390a35b806118b05760405162461bcd60e51b815260206004820152601360248201527f494e5f5245534f4c5554494f4e5f504841534500000000000000000000000000604482015260640161055a565b8254600160c01b900463ffffffff1615806118db5750825463ffffffff838116600160c01b90920416145b6119275760405162461bcd60e51b815260206004820152601e60248201527f50524556494f55535f434f4d4d49544d454e545f544f5f5245534f4c56450000604482015260640161055a565b825463ffffffff8316600160c01b81027fffffffff00000000000000000000000000000000000000000000000000000000909216604087811c91909117929092178555905167ffffffffffffffff198616815286907f7c43998fb35751dbddf74d7899a2e8f8f102de5a6c9322174bf38ff581d54f199060200160405180910390a35050505050565b5f6119bc82600261225f565b610b2e9060ff851686901c61226d565b610fbb816040516024016119e09190612280565b60408051601f198184030181529190526020810180517bffffffffffffffffffffffffffffffffffffffffffffffffffffffff167f41304fac00000000000000000000000000000000000000000000000000000000179052611bd0565b5f808560030b8460030b611a5191906122cb565b90505f8560030b8460030b611a6691906122cb565b90508160070b5f03611aa8578060070b600103611a8857600292505050610b2e565b8060070b5f1903611a9d575f92505050610b2e565b600492505050610b2e565b8160070b600103611abe57600192505050610b2e565b8160070b5f1903611a9d57600392505050610b2e565b5f600a80825b6003811015611b5857611af786611af260018661213a565b611bf0565b9250611b0885611af260018561213a565b91508160ff168360ff161115611b2a57611b23846001612311565b9350611b46565b8160ff168360ff161015611b4657611b43600185612331565b93505b80611b5081611f71565b915050611ada565b50505092915050565b610fbb81604051602401611b7791815260200190565b60408051601f198184030181529190526020810180517bffffffffffffffffffffffffffffffffffffffffffffffffffffffff167ff5b1bba9000000000000000000000000000000000000000000000000000000001790525b80516a636f6e736f6c652e6c6f67602083015f808483855afa5050505050565b5f80611bfd600184612331565b5f0b90505b5f8112611c3c5761ffff808516821c1615611c2a57611c22816001612351565b9150506104ef565b80611c3481612378565b915050611c02565b505f9392505050565b6040518060600160405280611c58611c6b565b81525f6020820181905260409091015290565b60405180608001604052806004906020820280368337509192915050565b5f60208284031215611c99575f80fd5b5035919050565b5f8060408385031215611cb1575f80fd5b50508035926020909101359150565b803561ffff81168114611cd1575f80fd5b919050565b803567ffffffffffffffff1981168114611cd1575f80fd5b5f805f805f8060a08789031215611d03575f80fd5b8635955060208701359450604087013567ffffffffffffffff80821115611d28575f80fd5b818901915089601f830112611d3b575f80fd5b813581811115611d49575f80fd5b8a60208260061b8501011115611d5d575f80fd5b602083019650809550505050611d7560608801611cc0565b9150611d8360808801611cd6565b90509295509295509295565b5f8060408385031215611da0575f80fd5b82359150611db060208401611cd6565b90509250929050565b803563ffffffff81168114611cd1575f80fd5b5f8060408385031215611ddd575f80fd5b611de683611db9565b946020939093013593505050565b815160c0820190825f5b6004811015611e1f5782511515825260209283019290910190600101611dfe565b505050602083015115156080830152604090920151151560a09091015290565b8035600381900b8114611cd1575f80fd5b5f8060408385031215611e61575f80fd5b611e6a83611e3f565b9150611db060208401611e3f565b5f60208284031215611e88575f80fd5b81356001600160a01b0381168114611e9e575f80fd5b9392505050565b5f805f60608486031215611eb7575f80fd5b611ec084611db9565b9250611ece60208501611e3f565b9150611edc60408501611e3f565b90509250925092565b5f60408284031215611ef5575f80fd5b6040516040810181811067ffffffffffffffff82111715611f2457634e487b7160e01b5f52604160045260245ffd5b6040528235815260208301358015158114611f3d575f80fd5b60208201529392505050565b634e487b7160e01b5f52603260045260245ffd5b634e487b7160e01b5f52601160045260245ffd5b5f5f198203611f8257611f82611f5d565b5060010190565b808201808211156104ef576104ef611f5d565b634e487b7160e01b5f52601260045260245ffd5b5f63ffffffff80841680611fc657611fc6611f9c565b92169190910692915050565b63ffffffff828116828216039080821115611fef57611fef611f5d565b5092915050565b818103818111156104ef576104ef611f5d565b5f8261201757612017611f9c565b500490565b80820281158282048414176104ef576104ef611f5d565b5f8151808452602080850194508084015f5b8381101561206e5781518051885283015115158388015260409096019590820190600101612045565b509495945050505050565b848152608060208201525f6120916080830186612033565b905061ffff8416604083015267ffffffffffffffff198316606083015295945050505050565b838152606060208201525f6120cf6060830185612033565b905061ffff83166040830152949350505050565b63ffffffff818116838216019080821115611fef57611fef611f5d565b60ff81811683821601908111156104ef576104ef611f5d565b5f60ff83168061212b5761212b611f9c565b8060ff84160691505092915050565b60ff82811682821603908111156104ef576104ef611f5d565b604081525f6121656040830185612033565b905067ffffffffffffffff19831660208301529392505050565b600181815b808511156121b957815f190482111561219f5761219f611f5d565b808516156121ac57918102915b93841c9390800290612184565b509250929050565b5f826121cf575060016104ef565b816121db57505f6104ef565b81600181146121f157600281146121fb57612217565b60019150506104ef565b60ff84111561220c5761220c611f5d565b50506001821b6104ef565b5060208310610133831016604e8410600b841016171561223a575081810a6104ef565b612244838361217f565b805f190482111561225757612257611f5d565b029392505050565b5f611e9e60ff8416836121c1565b5f8261227b5761227b611f9c565b500690565b5f6020808352835180828501525f5b818110156122ab5785810183015185820160400152820161228f565b505f604082860101526040601f19601f8301168501019250505092915050565b600782810b9082900b037fffffffffffffffffffffffffffffffffffffffffffffffff80000000000000008112677fffffffffffffff821317156104ef576104ef611f5d565b5f81810b9083900b01607f8113607f19821217156104ef576104ef611f5d565b5f82810b9082900b03607f198112607f821317156104ef576104ef611f5d565b8082018281125f83128015821682158216171561237057612370611f5d565b505092915050565b5f7f800000000000000000000000000000000000000000000000000000000000000082036123a8576123a8611f5d565b505f19019056fea2646970667358221220205178531e5579c2595d071dbb4cf82c5855fb3d2aa0563cc6afc3be0f664bac64736f6c63430008140033b53127684a568b3173ae13b9f8a6016e243e63b6e8ee1178d6a717850b5d6103ec99e9b645e0d752776aecb3a31c64ae23b491afeae29a072a0eaa66aa9a3862",
  "devdoc": {
    "kind": "dev",
    "methods": {},
    "version": 1
  },
  "userdoc": {
    "kind": "user",
    "methods": {},
    "version": 1
  },
  "storageLayout": {
    "storage": [
      {
        "astId": 9801,
        "contract": "src/TimeControlledDungeon.sol:TimeControlledDungeon",
        "label": "goldBattles",
        "offset": 0,
        "slot": "0",
        "type": "t_mapping(t_uint256,t_mapping(t_uint256,t_struct(GoldBattle)9767_storage))"
      },
      {
        "astId": 9808,
        "contract": "src/TimeControlledDungeon.sol:TimeControlledDungeon",
        "label": "monsterBattles",
        "offset": 0,
        "slot": "1",
        "type": "t_mapping(t_uint256,t_mapping(t_uint256,t_struct(MonsterBattle)9770_storage))"
      },
      {
        "astId": 9812,
        "contract": "src/TimeControlledDungeon.sol:TimeControlledDungeon",
        "label": "monsterClaims",
        "offset": 0,
        "slot": "2",
        "type": "t_mapping(t_uint256,t_uint256)"
      },
      {
        "astId": 9817,
        "contract": "src/TimeControlledDungeon.sol:TimeControlledDungeon",
        "label": "characters",
        "offset": 0,
        "slot": "3",
        "type": "t_mapping(t_uint256,t_struct(Character)9762_storage)"
      },
      {
        "astId": 9821,
        "contract": "src/TimeControlledDungeon.sol:TimeControlledDungeon",
        "label": "owners",
        "offset": 0,
        "slot": "4",
        "type": "t_mapping(t_uint256,t_address)"
      },
      {
        "astId": 9826,
        "contract": "src/TimeControlledDungeon.sol:TimeControlledDungeon",
        "label": "commitments",
        "offset": 0,
        "slot": "5",
        "type": "t_mapping(t_uint256,t_struct(Commitment)9775_storage)"
      },
      {
        "astId": 9828,
        "contract": "src/TimeControlledDungeon.sol:TimeControlledDungeon",
        "label": "epochHash_0",
        "offset": 0,
        "slot": "6",
        "type": "t_bytes32"
      },
      {
        "astId": 9830,
        "contract": "src/TimeControlledDungeon.sol:TimeControlledDungeon",
        "label": "epochHash_1",
        "offset": 0,
        "slot": "7",
        "type": "t_bytes32"
      }
    ],
    "types": {
      "t_address": {
        "encoding": "inplace",
        "label": "address",
        "numberOfBytes": "20"
      },
      "t_bytes24": {
        "encoding": "inplace",
        "label": "bytes24",
        "numberOfBytes": "24"
      },
      "t_bytes32": {
        "encoding": "inplace",
        "label": "bytes32",
        "numberOfBytes": "32"
      },
      "t_mapping(t_uint256,t_address)": {
        "encoding": "mapping",
        "key": "t_uint256",
        "label": "mapping(uint256 => address)",
        "numberOfBytes": "32",
        "value": "t_address"
      },
      "t_mapping(t_uint256,t_mapping(t_uint256,t_struct(GoldBattle)9767_storage))": {
        "encoding": "mapping",
        "key": "t_uint256",
        "label": "mapping(uint256 => mapping(uint256 => struct Dungeon.GoldBattle))",
        "numberOfBytes": "32",
        "value": "t_mapping(t_uint256,t_struct(GoldBattle)9767_storage)"
      },
      "t_mapping(t_uint256,t_mapping(t_uint256,t_struct(MonsterBattle)9770_storage))": {
        "encoding": "mapping",
        "key": "t_uint256",
        "label": "mapping(uint256 => mapping(uint256 => struct Dungeon.MonsterBattle))",
        "numberOfBytes": "32",
        "value": "t_mapping(t_uint256,t_struct(MonsterBattle)9770_storage)"
      },
      "t_mapping(t_uint256,t_struct(Character)9762_storage)": {
        "encoding": "mapping",
        "key": "t_uint256",
        "label": "mapping(uint256 => struct Dungeon.Character)",
        "numberOfBytes": "32",
        "value": "t_struct(Character)9762_storage"
      },
      "t_mapping(t_uint256,t_struct(Commitment)9775_storage)": {
        "encoding": "mapping",
        "key": "t_uint256",
        "label": "mapping(uint256 => struct Dungeon.Commitment)",
        "numberOfBytes": "32",
        "value": "t_struct(Commitment)9775_storage"
      },
      "t_mapping(t_uint256,t_struct(GoldBattle)9767_storage)": {
        "encoding": "mapping",
        "key": "t_uint256",
        "label": "mapping(uint256 => struct Dungeon.GoldBattle)",
        "numberOfBytes": "32",
        "value": "t_struct(GoldBattle)9767_storage"
      },
      "t_mapping(t_uint256,t_struct(MonsterBattle)9770_storage)": {
        "encoding": "mapping",
        "key": "t_uint256",
        "label": "mapping(uint256 => struct Dungeon.MonsterBattle)",
        "numberOfBytes": "32",
        "value": "t_struct(MonsterBattle)9770_storage"
      },
      "t_mapping(t_uint256,t_uint256)": {
        "encoding": "mapping",
        "key": "t_uint256",
        "label": "mapping(uint256 => uint256)",
        "numberOfBytes": "32",
        "value": "t_uint256"
      },
      "t_struct(Character)9762_storage": {
        "encoding": "inplace",
        "label": "struct Dungeon.Character",
        "members": [
          {
            "astId": 9753,
            "contract": "src/TimeControlledDungeon.sol:TimeControlledDungeon",
            "label": "position",
            "offset": 0,
            "slot": "0",
            "type": "t_uint256"
          },
          {
            "astId": 9755,
            "contract": "src/TimeControlledDungeon.sol:TimeControlledDungeon",
            "label": "gold",
            "offset": 0,
            "slot": "1",
            "type": "t_uint256"
          },
          {
            "astId": 9757,
            "contract": "src/TimeControlledDungeon.sol:TimeControlledDungeon",
            "label": "life",
            "offset": 0,
            "slot": "2",
            "type": "t_uint8"
          },
          {
            "astId": 9759,
            "contract": "src/TimeControlledDungeon.sol:TimeControlledDungeon",
            "label": "equipment",
            "offset": 0,
            "slot": "3",
            "type": "t_bytes32"
          },
          {
            "astId": 9761,
            "contract": "src/TimeControlledDungeon.sol:TimeControlledDungeon",
            "label": "combatStanceAvailable",
            "offset": 0,
            "slot": "4",
            "type": "t_uint16"
          }
        ],
        "numberOfBytes": "160"
      },
      "t_struct(Commitment)9775_storage": {
        "encoding": "inplace",
        "label": "struct Dungeon.Commitment",
        "members": [
          {
            "astId": 9772,
            "contract": "src/TimeControlledDungeon.sol:TimeControlledDungeon",
            "label": "hash",
            "offset": 0,
            "slot": "0",
            "type": "t_bytes24"
          },
          {
            "astId": 9774,
            "contract": "src/TimeControlledDungeon.sol:TimeControlledDungeon",
            "label": "epoch",
            "offset": 24,
            "slot": "0",
            "type": "t_uint32"
          }
        ],
        "numberOfBytes": "32"
      },
      "t_struct(GoldBattle)9767_storage": {
        "encoding": "inplace",
        "label": "struct Dungeon.GoldBattle",
        "members": [
          {
            "astId": 9764,
            "contract": "src/TimeControlledDungeon.sol:TimeControlledDungeon",
            "label": "currentWinner",
            "offset": 0,
            "slot": "0",
            "type": "t_uint256"
          },
          {
            "astId": 9766,
            "contract": "src/TimeControlledDungeon.sol:TimeControlledDungeon",
            "label": "combatStance",
            "offset": 0,
            "slot": "1",
            "type": "t_uint16"
          }
        ],
        "numberOfBytes": "64"
      },
      "t_struct(MonsterBattle)9770_storage": {
        "encoding": "inplace",
        "label": "struct Dungeon.MonsterBattle",
        "members": [
          {
            "astId": 9769,
            "contract": "src/TimeControlledDungeon.sol:TimeControlledDungeon",
            "label": "life",
            "offset": 0,
            "slot": "0",
            "type": "t_uint256"
          }
        ],
        "numberOfBytes": "32"
      },
      "t_uint16": {
        "encoding": "inplace",
        "label": "uint16",
        "numberOfBytes": "2"
      },
      "t_uint256": {
        "encoding": "inplace",
        "label": "uint256",
        "numberOfBytes": "32"
      },
      "t_uint32": {
        "encoding": "inplace",
        "label": "uint32",
        "numberOfBytes": "4"
      },
      "t_uint8": {
        "encoding": "inplace",
        "label": "uint8",
        "numberOfBytes": "1"
      }
    },
    "args_data": "0x",
    "tx_hash": "0x",
    "data": "0x"
  }
}