{
  "address": "0x5037228d4ee6103a5992b2DD0330f883FF885D70",
  "abi": [
    {
      "inputs": [
        {
          "internalType": "contract Characters",
          "name": "characters",
          "type": "address"
        }
      ],
      "stateMutability": "nonpayable",
      "type": "constructor"
    },
    {
      "anonymous": false,
      "inputs": [
        {
          "indexed": true,
          "internalType": "address",
          "name": "player",
          "type": "address"
        },
        {
          "indexed": true,
          "internalType": "uint256",
          "name": "characterID",
          "type": "uint256"
        }
      ],
      "name": "CharacterEnterTheDungeon",
      "type": "event"
    },
    {
      "anonymous": false,
      "inputs": [
        {
          "indexed": true,
          "internalType": "uint256",
          "name": "characterID",
          "type": "uint256"
        },
        {
          "indexed": true,
          "internalType": "uint256",
          "name": "position",
          "type": "uint256"
        },
        {
          "indexed": false,
          "internalType": "uint8",
          "name": "life",
          "type": "uint8"
        },
        {
          "indexed": false,
          "internalType": "uint256",
          "name": "gold",
          "type": "uint256"
        },
        {
          "indexed": false,
          "internalType": "bytes32",
          "name": "equipment",
          "type": "bytes32"
        },
        {
          "indexed": false,
          "internalType": "uint16",
          "name": "combatStanceAvailable",
          "type": "uint16"
        }
      ],
      "name": "CharacterUpdate",
      "type": "event"
    },
    {
      "anonymous": false,
      "inputs": [
        {
          "indexed": true,
          "internalType": "uint256",
          "name": "characterID",
          "type": "uint256"
        },
        {
          "indexed": true,
          "internalType": "uint32",
          "name": "epoch",
          "type": "uint32"
        },
        {
          "indexed": false,
          "internalType": "bytes24",
          "name": "commitmentHash",
          "type": "bytes24"
        }
      ],
      "name": "CommitmentMade",
      "type": "event"
    },
    {
      "anonymous": false,
      "inputs": [
        {
          "indexed": true,
          "internalType": "uint256",
          "name": "characterID",
          "type": "uint256"
        },
        {
          "indexed": true,
          "internalType": "uint32",
          "name": "epoch",
          "type": "uint32"
        },
        {
          "indexed": true,
          "internalType": "bytes24",
          "name": "commitmentHash",
          "type": "bytes24"
        },
        {
          "components": [
            {
              "internalType": "uint256",
              "name": "position",
              "type": "uint256"
            },
            {
              "internalType": "bool",
              "name": "pickTreasure",
              "type": "bool"
            }
          ],
          "indexed": false,
          "internalType": "struct Dungeon.Action[]",
          "name": "actions",
          "type": "tuple[]"
        },
        {
          "indexed": false,
          "internalType": "bytes24",
          "name": "furtherActions",
          "type": "bytes24"
        }
      ],
      "name": "CommitmentResolved",
      "type": "event"
    },
    {
      "anonymous": false,
      "inputs": [
        {
          "indexed": true,
          "internalType": "uint256",
          "name": "characterID",
          "type": "uint256"
        },
        {
          "indexed": true,
          "internalType": "uint32",
          "name": "epoch",
          "type": "uint32"
        }
      ],
      "name": "CommitmentVoid",
      "type": "event"
    },
    {
      "anonymous": false,
      "inputs": [
        {
          "indexed": true,
          "internalType": "uint256",
          "name": "epoch",
          "type": "uint256"
        },
        {
          "indexed": false,
          "internalType": "bytes32",
          "name": "epochHash",
          "type": "bytes32"
        }
      ],
      "name": "EpochHashUpdate",
      "type": "event"
    },
    {
      "anonymous": false,
      "inputs": [
        {
          "indexed": true,
          "internalType": "uint256",
          "name": "characterID",
          "type": "uint256"
        },
        {
          "indexed": true,
          "internalType": "uint256",
          "name": "position",
          "type": "uint256"
        },
        {
          "indexed": true,
          "internalType": "uint256",
          "name": "epoch",
          "type": "uint256"
        }
      ],
      "name": "MonsterClaim",
      "type": "event"
    },
    {
      "anonymous": false,
      "inputs": [
        {
          "indexed": true,
          "internalType": "uint256",
          "name": "position",
          "type": "uint256"
        },
        {
          "indexed": true,
          "internalType": "uint256",
          "name": "epoch",
          "type": "uint256"
        }
      ],
      "name": "MonsterDefeat",
      "type": "event"
    },
    {
      "anonymous": false,
      "inputs": [
        {
          "indexed": true,
          "internalType": "uint256",
          "name": "position",
          "type": "uint256"
        },
        {
          "indexed": false,
          "internalType": "bytes32",
          "name": "goldBattle",
          "type": "bytes32"
        },
        {
          "indexed": false,
          "internalType": "bytes32",
          "name": "monsterBattle",
          "type": "bytes32"
        }
      ],
      "name": "RoomUpdate",
      "type": "event"
    },
    {
      "anonymous": false,
      "inputs": [
        {
          "indexed": false,
          "internalType": "uint256",
          "name": "newTime",
          "type": "uint256"
        },
        {
          "indexed": false,
          "internalType": "uint256",
          "name": "delta",
          "type": "uint256"
        }
      ],
      "name": "TimeIncreased",
      "type": "event"
    },
    {
      "inputs": [
        {
          "internalType": "uint256",
          "name": "",
          "type": "uint256"
        }
      ],
      "name": "characters",
      "outputs": [
        {
          "internalType": "uint256",
          "name": "position",
          "type": "uint256"
        },
        {
          "internalType": "uint256",
          "name": "gold",
          "type": "uint256"
        },
        {
          "internalType": "uint8",
          "name": "life",
          "type": "uint8"
        },
        {
          "internalType": "bytes32",
          "name": "equipment",
          "type": "bytes32"
        },
        {
          "internalType": "uint16",
          "name": "combatStanceAvailable",
          "type": "uint16"
        }
      ],
      "stateMutability": "view",
      "type": "function"
    },
    {
      "inputs": [
        {
          "internalType": "uint256",
          "name": "",
          "type": "uint256"
        }
      ],
      "name": "commitments",
      "outputs": [
        {
          "internalType": "bytes24",
          "name": "hash",
          "type": "bytes24"
        },
        {
          "internalType": "uint32",
          "name": "epoch",
          "type": "uint32"
        }
      ],
      "stateMutability": "view",
      "type": "function"
    },
    {
      "inputs": [
        {
          "internalType": "bytes32",
          "name": "roomHashData",
          "type": "bytes32"
        }
      ],
      "name": "computeRoom",
      "outputs": [
        {
          "components": [
            {
              "internalType": "bool[4]",
              "name": "exits",
              "type": "bool[4]"
            },
            {
              "internalType": "bool",
              "name": "treasure",
              "type": "bool"
            },
            {
              "internalType": "bool",
              "name": "monster",
              "type": "bool"
            }
          ],
          "internalType": "struct Dungeon.Room",
          "name": "",
          "type": "tuple"
        }
      ],
      "stateMutability": "pure",
      "type": "function"
    },
    {
      "inputs": [],
      "name": "enter",
      "outputs": [],
      "stateMutability": "payable",
      "type": "function"
    },
    {
      "inputs": [
        {
          "internalType": "uint256",
          "name": "",
          "type": "uint256"
        },
        {
          "internalType": "uint256",
          "name": "",
          "type": "uint256"
        }
      ],
      "name": "goldBattles",
      "outputs": [
        {
          "internalType": "uint256",
          "name": "currentWinner",
          "type": "uint256"
        },
        {
          "internalType": "uint16",
          "name": "combatStance",
          "type": "uint16"
        }
      ],
      "stateMutability": "view",
      "type": "function"
    },
    {
      "inputs": [
        {
          "internalType": "uint256",
          "name": "delta",
          "type": "uint256"
        }
      ],
      "name": "increaseTime",
      "outputs": [],
      "stateMutability": "nonpayable",
      "type": "function"
    },
    {
      "inputs": [
        {
          "internalType": "uint256",
          "name": "characterID",
          "type": "uint256"
        },
        {
          "internalType": "bytes24",
          "name": "commitmentHash",
          "type": "bytes24"
        }
      ],
      "name": "makeCommitment",
      "outputs": [],
      "stateMutability": "nonpayable",
      "type": "function"
    },
    {
      "inputs": [
        {
          "internalType": "uint256",
          "name": "",
          "type": "uint256"
        },
        {
          "internalType": "uint256",
          "name": "",
          "type": "uint256"
        }
      ],
      "name": "monsterBattles",
      "outputs": [
        {
          "internalType": "uint256",
          "name": "life",
          "type": "uint256"
        }
      ],
      "stateMutability": "view",
      "type": "function"
    },
    {
      "inputs": [
        {
          "internalType": "uint256",
          "name": "",
          "type": "uint256"
        }
      ],
      "name": "monsterClaims",
      "outputs": [
        {
          "internalType": "uint256",
          "name": "",
          "type": "uint256"
        }
      ],
      "stateMutability": "view",
      "type": "function"
    },
    {
      "inputs": [
        {
          "internalType": "uint256",
          "name": "",
          "type": "uint256"
        }
      ],
      "name": "owners",
      "outputs": [
        {
          "internalType": "address",
          "name": "",
          "type": "address"
        }
      ],
      "stateMutability": "view",
      "type": "function"
    },
    {
      "inputs": [
        {
          "internalType": "contract Characters",
          "name": "charactersCollection",
          "type": "address"
        }
      ],
      "name": "postUpgrade",
      "outputs": [],
      "stateMutability": "nonpayable",
      "type": "function"
    },
    {
      "inputs": [
        {
          "internalType": "uint256",
          "name": "characterID",
          "type": "uint256"
        },
        {
          "internalType": "bytes32",
          "name": "secret",
          "type": "bytes32"
        },
        {
          "components": [
            {
              "internalType": "uint256",
              "name": "position",
              "type": "uint256"
            },
            {
              "internalType": "bool",
              "name": "pickTreasure",
              "type": "bool"
            }
          ],
          "internalType": "struct Dungeon.Action[]",
          "name": "actions",
          "type": "tuple[]"
        },
        {
          "internalType": "uint16",
          "name": "combatStance",
          "type": "uint16"
        },
        {
          "internalType": "bytes24",
          "name": "furtherActions",
          "type": "bytes24"
        }
      ],
      "name": "resolve",
      "outputs": [],
      "stateMutability": "nonpayable",
      "type": "function"
    },
    {
      "inputs": [
        {
          "internalType": "uint256",
          "name": "id",
          "type": "uint256"
        }
      ],
      "name": "roomCoords",
      "outputs": [
        {
          "internalType": "int32",
          "name": "x",
          "type": "int32"
        },
        {
          "internalType": "int32",
          "name": "y",
          "type": "int32"
        }
      ],
      "stateMutability": "pure",
      "type": "function"
    },
    {
      "inputs": [
        {
          "internalType": "uint32",
          "name": "epoch",
          "type": "uint32"
        },
        {
          "internalType": "uint256",
          "name": "id",
          "type": "uint256"
        }
      ],
      "name": "roomHash",
      "outputs": [
        {
          "internalType": "bytes32",
          "name": "",
          "type": "bytes32"
        }
      ],
      "stateMutability": "view",
      "type": "function"
    },
    {
      "inputs": [
        {
          "internalType": "uint32",
          "name": "epoch",
          "type": "uint32"
        },
        {
          "internalType": "int32",
          "name": "x",
          "type": "int32"
        },
        {
          "internalType": "int32",
          "name": "y",
          "type": "int32"
        }
      ],
      "name": "roomHash",
      "outputs": [
        {
          "internalType": "bytes32",
          "name": "",
          "type": "bytes32"
        }
      ],
      "stateMutability": "view",
      "type": "function"
    },
    {
      "inputs": [
        {
          "internalType": "int32",
          "name": "x",
          "type": "int32"
        },
        {
          "internalType": "int32",
          "name": "y",
          "type": "int32"
        }
      ],
      "name": "roomID",
      "outputs": [
        {
          "internalType": "uint256",
          "name": "",
          "type": "uint256"
        }
      ],
      "stateMutability": "pure",
      "type": "function"
    },
    {
      "inputs": [],
      "name": "timestamp",
      "outputs": [
        {
          "internalType": "uint256",
          "name": "",
          "type": "uint256"
        }
      ],
      "stateMutability": "view",
      "type": "function"
    }
  ],
  "transactionHash": "0x7c7464e0b18d87ff940298ddcb19ea98078771c64d6b307e7711d6944281a5eb",
  "args": [
    "0xb0360B510Be1AD9d656BB45B1EB9fA668dDeB021"
  ],
  "numDeployments": 1,
  "solcInputHash": "dd10a42ce07f21a083a7ea04090d94a0",
  "bytecode": "0x60a060405234801562000010575f80fd5b5060405162002780380380620027808339810160408190526200003391620002f1565b6001600160a01b038116608052806200004c8162000054565b505062000416565b5f6200006c5f80516020620027408339815191525490565b90506001600160a01b0381166200009b576001600160a01b035f805160206200274083398151915255620000b0565b336001600160a01b03821614620000b0575f80fd5b6080516001600160a01b0316826001600160a01b031614620001195760405162461bcd60e51b815260206004820152601c60248201527f636861726163746572546f6b656e7320697320696d6d757461626c650000000060448201526064015b60405180910390fd5b5f806200012562000154565b915091506200014e816200013a578262000147565b6200014760018462000334565b5f62000216565b50505050565b5f80620151808162000165620002b6565b1015620001a85760405162461bcd60e51b815260206004820152601060248201526f11d0535157d393d517d4d5105495115160821b604482015260640162000110565b5f80620001b4620002b6565b620001c091906200035b565b9050620001ce82826200038b565b620001db906001620003a1565b93506201437082620001ef60018762000334565b63ffffffff16620002019190620003b7565b6200020d90836200035b565b10925050509091565b62000223600283620003d1565b63ffffffff165f036200027957600780548218905562000245826001620003f6565b63ffffffff165f80516020620027608339815191526007546040516200026d91815260200190565b60405180910390a25050565b60068054821890556200028e826001620003f6565b63ffffffff165f80516020620027608339815191526006546040516200026d91815260200190565b5f620002e07f0112c413de07a110ce0a9ace0c01e41b5b59462770325b042f0dc72c337f55f25490565b620002ec9042620003a1565b905090565b5f6020828403121562000302575f80fd5b81516001600160a01b038116811462000319575f80fd5b9392505050565b634e487b7160e01b5f52601160045260245ffd5b63ffffffff82811682821603908082111562000354576200035462000320565b5092915050565b8181038181111562000371576200037162000320565b92915050565b634e487b7160e01b5f52601260045260245ffd5b5f826200039c576200039c62000377565b500490565b8082018082111562000371576200037162000320565b808202811582820484141762000371576200037162000320565b5f63ffffffff80841680620003ea57620003ea62000377565b92169190910692915050565b63ffffffff81811683821601908082111562000354576200035462000320565b60805161230a620004365f395f8181610c360152610e01015261230a5ff3fe608060405260043610610109575f3560e01c80634b7efbfc116100a1578063b80777ea11610071578063c79b243011610057578063c79b243014610447578063d0ff234214610466578063e97dcb6214610485575f80fd5b8063b80777ea14610407578063be4b0d101461041b575f80fd5b80634b7efbfc14610330578063558f546b1461038657806368a611f4146103b1578063a67f678f146103d0575f80fd5b80633c9a2a1a116100dc5780633c9a2a1a1461020857806340b968df146102275780634810bc591461024657806349ce8997146102cb575f80fd5b8063025e7c271461010d5780630e74dc9f1461015e5780631d5b108d146101a357806329a06c26146101c4575b5f80fd5b348015610118575f80fd5b50610141610127366004611bae565b60046020525f90815260409020546001600160a01b031681565b6040516001600160a01b0390911681526020015b60405180910390f35b348015610169575f80fd5b50610189610178366004611bae565b63ffffffff81169160209190911c90565b60408051600393840b81529190920b602082015201610155565b3480156101ae575f80fd5b506101c26101bd366004611bf3565b61048d565b005b3480156101cf575f80fd5b506101fa6101de366004611c94565b600160209081525f928352604080842090915290825290205481565b604051908152602001610155565b348015610213575f80fd5b506101c2610222366004611bae565b6107ed565b348015610232575f80fd5b506101c2610241366004611cb4565b610905565b348015610251575f80fd5b50610297610260366004611bae565b600360208190525f9182526040909120805460018201546002830154938301546004909301549193909260ff9091169161ffff1685565b60408051958652602086019490945260ff90921692840192909252606083019190915261ffff16608082015260a001610155565b3480156102d6575f80fd5b5061030a6102e5366004611bae565b60056020525f908152604090819020549081901b90600160c01b900463ffffffff1682565b6040805167ffffffffffffffff19909316835263ffffffff909116602083015201610155565b34801561033b575f80fd5b5061036e61034a366004611c94565b5f6020818152928152604080822090935290815220805460019091015461ffff1682565b6040805192835261ffff909116602083015201610155565b348015610391575f80fd5b506101fa6103a0366004611bae565b60026020525f908152604090205481565b3480156103bc575f80fd5b506101fa6103cb366004611cf1565b610a17565b3480156103db575f80fd5b506101fa6103ea366004611d2a565b67ffffffff00000000602082901b1663ffffffff83160192915050565b348015610412575f80fd5b506101fa610a72565b348015610426575f80fd5b5061043a610435366004611bae565b610a80565b6040516101559190611d52565b348015610452575f80fd5b506101c2610461366004611d9d565b610bb8565b348015610471575f80fd5b506101fa610480366004611dca565b610ce8565b6101c2610d11565b5f86815260056020526040812090806104a4610f01565b9150915080156104fb5760405162461bcd60e51b815260206004820152601260248201527f494e5f434f4d4d4954494e475f5048415345000000000000000000000000000060448201526064015b60405180910390fd5b8254600160c01b900463ffffffff165f036105585760405162461bcd60e51b815260206004820152601260248201527f4e4f5448494e475f544f5f5245534f4c5645000000000000000000000000000060448201526064016104f2565b825463ffffffff838116600160c01b90920416146105b85760405162461bcd60e51b815260206004820152600d60248201527f494e56414c49445f65706f63680000000000000000000000000000000000000060448201526064016104f2565b8254604080516020808a0282018101835289825261061a9390921b918b91908b908b9081905f9085015b8282101561060e576105ff60408302860136819003810190611e0a565b815260200190600101906105e2565b50505050508888610fbe565b6106248289611106565b5f898152600360208181526040808420815160a0810183528154808252600183015494820194909452600282015460ff169281019290925292830154606082015260049092015461ffff16608083015290919061068690610435908690610a17565b90505f5b88811015610777575f8a8a838181106106a5576106a5611e6e565b9050604002018036038101906106bb9190611e0a565b90505f6106ce61043588845f0151610a17565b855183519192506106e1918690846111c1565b1561071a5781518552602082015190935083901561071557836020015115610715576107158763ffffffff168f878d6112ca565b610762565b60405162461bcd60e51b815260206004820152600c60248201527f696e76616c6964206d6f7665000000000000000000000000000000000000000060448201526064016104f2565b5050808061076f90611e96565b91505061068a565b506107d68b85878c8c808060200260200160405190810160405280939291908181526020015f905b828210156107cb576107bc60408302860136819003810190611e0a565b8152602001906001019061079f565b50505050508a61146d565b6107e08b83611530565b5050505050505050505050565b7fb53127684a568b3173ae13b9f8a6016e243e63b6e8ee1178d6a717850b5d610354336001600160a01b038216146108675760405162461bcd60e51b815260206004820152600960248201527f4e4f545f41444d494e000000000000000000000000000000000000000000000060448201526064016104f2565b5f826108917f0112c413de07a110ce0a9ace0c01e41b5b59462770325b042f0dc72c337f55f25490565b61089b9190611eae565b9050807f0112c413de07a110ce0a9ace0c01e41b5b59462770325b042f0dc72c337f55f2557f36e7cd7cbe0c64c4f819149d7127212cc2ebb56e948ae958ef18f6d1535871c96108e96115dc565b60408051918252602082018690520160405180910390a1505050565b5f828152600460205260409020546001600160a01b0316331461096a5760405162461bcd60e51b815260206004820152600960248201527f4e4f545f4f574e4552000000000000000000000000000000000000000000000060448201526064016104f2565b5f82815260036020818152604092839020835160a08101855281548152600182015492810192909252600281015460ff1693820184905291820154606082015260049091015461ffff16608082015290610a085760405162461bcd60e51b81526004016104f29060208082526004908201527f4445414400000000000000000000000000000000000000000000000000000000604082015260600190565b610a12838361160f565b505050565b5f80610a24600285611ed5565b63ffffffff1615610a3757600754610a3b565b6006545b6040805160208101839052908101859052909150606001604051602081830303815290604052805190602001209150505b92915050565b5f610a7b6115dc565b905090565b610a88611b6a565b5f610a95835f60026118d5565b90505f600a610aa785600260056118d5565b60ff161090505f610abb85600760026118d5565b90505f828015610ace575060038260ff16105b610ad9576004610adb565b815b90505f6014610aed886009600a6118d5565b1090505f610afe88601360076118d5565b90505f82610b125760018260ff1610610b1a565b601e8260ff16105b6040805160e0810190915290915080606081018060ff8b161580610b3f575060ff8816155b15158152602001600160ff8c161480610b5b57508760ff166001145b15158152602001600260ff8c161480610b7757508760ff166002145b15158152602001600360ff8c161480610b9357508760ff166003145b1515905281529315156020850152901515604090930192909252509695505050505050565b5f610be17fb53127684a568b3173ae13b9f8a6016e243e63b6e8ee1178d6a717850b5d61035490565b90506001600160a01b038116610c20576001600160a01b037fb53127684a568b3173ae13b9f8a6016e243e63b6e8ee1178d6a717850b5d610355610c34565b336001600160a01b03821614610c34575f80fd5b7f00000000000000000000000000000000000000000000000000000000000000006001600160a01b0316826001600160a01b031614610cb55760405162461bcd60e51b815260206004820152601c60248201527f636861726163746572546f6b656e7320697320696d6d757461626c650000000060448201526064016104f2565b5f80610cbf610f01565b91509150610ce281610cd15782610cdc565b610cdc600184611ef7565b5f611106565b50505050565b5f610d098463ffffffff8516602085901b67ffffffff000000001601610a17565b949350505050565b3466038d7ea4c6800014610d675760405162461bcd60e51b815260206004820152601060248201527f47495645204d4520544845204b5745490000000000000000000000000000000060448201526064016104f2565b335f818152600460205260409020546001600160a01b031615610dcc5760405162461bcd60e51b815260206004820152600a60248201527f414c52454144595f494e0000000000000000000000000000000000000000000060448201526064016104f2565b6040517f94bf804d000000000000000000000000000000000000000000000000000000008152600481018290523060248201527f00000000000000000000000000000000000000000000000000000000000000006001600160a01b0316906394bf804d906044015f604051808303815f87803b158015610e4a575f80fd5b505af1158015610e5c573d5f803e3d5ffd5b5050505f8281526004602052604080822080547fffffffffffffffffffffffff00000000000000000000000000000000000000001633908117909155905184935090917f88f44981dd7340873ce645fff36fd047197026d64ffa5145d62684dac489859391a3610efe816040518060a001604052805f81526020015f8152602001600360ff1681526020015f801b81526020016101ff61ffff16815250611530565b50565b5f806201518081610f106115dc565b1015610f5e5760405162461bcd60e51b815260206004820152601060248201527f47414d455f4e4f545f535441525445440000000000000000000000000000000060448201526064016104f2565b5f80610f686115dc565b610f729190611f1b565b9050610f7e8282611f2e565b610f89906001611eae565b93506201437082610f9b600187611ef7565b63ffffffff16610fab9190611f41565b610fb59083611f1b565b10925050509091565b67ffffffffffffffff1981161561106a575f84848484604051602001610fe79493929190611f9e565b6040516020818303038152906040528051906020012090508067ffffffffffffffff19168667ffffffffffffffff1916146110645760405162461bcd60e51b815260206004820152601160248201527f484153485f4e4f545f4d41544348494e4700000000000000000000000000000060448201526064016104f2565b506110ff565b5f84848460405160200161108093929190611fdc565b6040516020818303038152906040528051906020012090508067ffffffffffffffff19168667ffffffffffffffff1916146110fd5760405162461bcd60e51b815260206004820152601160248201527f484153485f4e4f545f4d41544348494e4700000000000000000000000000000060448201526064016104f2565b505b5050505050565b611111600283611ed5565b63ffffffff165f03611175576007805482189055611130826001612008565b63ffffffff167fec99e9b645e0d752776aecb3a31c64ae23b491afeae29a072a0eaa66aa9a386260075460405161116991815260200190565b60405180910390a25050565b6006805482189055611188826001612008565b63ffffffff167fec99e9b645e0d752776aecb3a31c64ae23b491afeae29a072a0eaa66aa9a386260065460405161116991815260200190565b5f63ffffffff85811690602087811c9186169086901c600384810b9083900b1480156111f257508060030b8360030b145b15611242576112356040518060400160405280600481526020017f73616d65000000000000000000000000000000000000000000000000000000008152506118f1565b6001945050505050610d09565b5f61124f85858585611962565b90508060ff16600403611269575f95505050505050610d09565b885160ff82166004811061127f5761127f611e6e565b6020020151806112bc575086516004611299836002612025565b6112a3919061203e565b60ff16600481106112b6576112b6611e6e565b60200201515b9a9950505050505050505050565b5f848152602081815260408083208551845282528083208151808301909252805482526001015461ffff16918101829052910361133257602083015161131890670de0b6b3a7640000611eae565b60208085019190915284825261ffff83169082015261142e565b5f6113418383602001516119f9565b90505f815f0b1261142c578151156113e35781515f90815260036020818152604092839020835160a081018552815481526001820154928101839052600282015460ff169481019490945291820154606084015260049091015461ffff1660808301526113b790670de0b6b3a764000090611f1b565b602082015260408101516113cd9060019061205f565b60ff16604082015282516113e19082611530565b505b5f815f0b131561141e57602084015161140490670de0b6b3a7640000611eae565b60208086019190915285835261ffff84169083015261142c565b5f825261ffff831660208301525b505b5f9485526020858152604080872094518752938152929094208451815593909101516001909301805461ffff191661ffff909416939093179092555050565b825460401b67ffffffffffffffff198216156114b45783547fffffffffffffffff00000000000000000000000000000000000000000000000016604083901c1784556114db565b83547fffffffff00000000ffffffffffffffffffffffffffffffffffffffffffffffff1684555b8067ffffffffffffffff19168563ffffffff16877fe9c231e32489c1cd453cdf7bb6f012ba9367c3bd0274d7d3477a3229117fe5588686604051611520929190612078565b60405180910390a4505050505050565b5f82815260036020818152604092839020845180825585830151600183018190558686015160028401805460ff191660ff90921691821790556060808901519685018790556080808a01516004909601805461ffff191661ffff90971696871790558851928352958201929092529586019490945292840152909184917fbe3976e28d32740b80f18f5801a0f37dfe790989037762b6fab681180c759eba910160405180910390a35050565b5f6116057f0112c413de07a110ce0a9ace0c01e41b5b59462770325b042f0dc72c337f55f25490565b610a7b9042611eae565b5f8281526005602052604081209080611626610f01565b915091506116686040518060400160405280600581526020017f65706f63680000000000000000000000000000000000000000000000000000008152506118f1565b6116778263ffffffff16611a86565b8254600160c01b900463ffffffff16158015906116a55750825463ffffffff838116600160c01b9092041614155b15611788575f85815260036020526040808220600201805460ff1916905584547fffffffff00000000ffffffffffffffffffffffffffffffffffffffffffffffff1685555163ffffffff84169187917f55bcfb749765e4f29e47e536e89cd7ecd421104fe2f6b756e96fd255aa623a339190a35f8581526003602081815260408084208054600282015460018301549290950154835160ff90961686529385019190915290830191909152606082019290925286907fbe3976e28d32740b80f18f5801a0f37dfe790989037762b6fab681180c759eba9060800160405180910390a35b806117d55760405162461bcd60e51b815260206004820152601360248201527f494e5f5245534f4c5554494f4e5f50484153450000000000000000000000000060448201526064016104f2565b8254600160c01b900463ffffffff1615806118005750825463ffffffff838116600160c01b90920416145b61184c5760405162461bcd60e51b815260206004820152601e60248201527f50524556494f55535f434f4d4d49544d454e545f544f5f5245534f4c5645000060448201526064016104f2565b825463ffffffff8316600160c01b81027fffffffff00000000000000000000000000000000000000000000000000000000909216604087811c91909117929092178555905167ffffffffffffffff198616815286907f7c43998fb35751dbddf74d7899a2e8f8f102de5a6c9322174bf38ff581d54f199060200160405180910390a35050505050565b5f6118e1826002612184565b610d099060ff851686901c612192565b610efe8160405160240161190591906121a5565b60408051601f198184030181529190526020810180517bffffffffffffffffffffffffffffffffffffffffffffffffffffffff167f41304fac00000000000000000000000000000000000000000000000000000000179052611af5565b5f808560030b8460030b61197691906121f0565b90505f8560030b8460030b61198b91906121f0565b90508160070b5f036119cd578060070b6001036119ad57600292505050610d09565b8060070b5f19036119c2575f92505050610d09565b600492505050610d09565b8160070b6001036119e357600192505050610d09565b8160070b5f19036119c257600392505050610d09565b5f600a80825b6003811015611a7d57611a1c86611a1760018661205f565b611b15565b9250611a2d85611a1760018561205f565b91508160ff168360ff161115611a4f57611a48846001612236565b9350611a6b565b8160ff168360ff161015611a6b57611a68600185612256565b93505b80611a7581611e96565b9150506119ff565b50505092915050565b610efe81604051602401611a9c91815260200190565b60408051601f198184030181529190526020810180517bffffffffffffffffffffffffffffffffffffffffffffffffffffffff167ff5b1bba9000000000000000000000000000000000000000000000000000000001790525b80516a636f6e736f6c652e6c6f67602083015f808483855afa5050505050565b5f80611b22600184612256565b5f0b90505b5f8112611b615761ffff808516821c1615611b4f57611b47816001612276565b915050610a6c565b80611b598161229d565b915050611b27565b505f9392505050565b6040518060600160405280611b7d611b90565b81525f6020820181905260409091015290565b60405180608001604052806004906020820280368337509192915050565b5f60208284031215611bbe575f80fd5b5035919050565b803561ffff81168114611bd6575f80fd5b919050565b803567ffffffffffffffff1981168114611bd6575f80fd5b5f805f805f8060a08789031215611c08575f80fd5b8635955060208701359450604087013567ffffffffffffffff80821115611c2d575f80fd5b818901915089601f830112611c40575f80fd5b813581811115611c4e575f80fd5b8a60208260061b8501011115611c62575f80fd5b602083019650809550505050611c7a60608801611bc5565b9150611c8860808801611bdb565b90509295509295509295565b5f8060408385031215611ca5575f80fd5b50508035926020909101359150565b5f8060408385031215611cc5575f80fd5b82359150611cd560208401611bdb565b90509250929050565b803563ffffffff81168114611bd6575f80fd5b5f8060408385031215611d02575f80fd5b611d0b83611cde565b946020939093013593505050565b8035600381900b8114611bd6575f80fd5b5f8060408385031215611d3b575f80fd5b611d4483611d19565b9150611cd560208401611d19565b815160c0820190825f5b6004811015611d7d5782511515825260209283019290910190600101611d5c565b505050602083015115156080830152604090920151151560a09091015290565b5f60208284031215611dad575f80fd5b81356001600160a01b0381168114611dc3575f80fd5b9392505050565b5f805f60608486031215611ddc575f80fd5b611de584611cde565b9250611df360208501611d19565b9150611e0160408501611d19565b90509250925092565b5f60408284031215611e1a575f80fd5b6040516040810181811067ffffffffffffffff82111715611e4957634e487b7160e01b5f52604160045260245ffd5b6040528235815260208301358015158114611e62575f80fd5b60208201529392505050565b634e487b7160e01b5f52603260045260245ffd5b634e487b7160e01b5f52601160045260245ffd5b5f5f198203611ea757611ea7611e82565b5060010190565b80820180821115610a6c57610a6c611e82565b634e487b7160e01b5f52601260045260245ffd5b5f63ffffffff80841680611eeb57611eeb611ec1565b92169190910692915050565b63ffffffff828116828216039080821115611f1457611f14611e82565b5092915050565b81810381811115610a6c57610a6c611e82565b5f82611f3c57611f3c611ec1565b500490565b8082028115828204841417610a6c57610a6c611e82565b5f8151808452602080850194508084015f5b83811015611f935781518051885283015115158388015260409096019590820190600101611f6a565b509495945050505050565b848152608060208201525f611fb66080830186611f58565b905061ffff8416604083015267ffffffffffffffff198316606083015295945050505050565b838152606060208201525f611ff46060830185611f58565b905061ffff83166040830152949350505050565b63ffffffff818116838216019080821115611f1457611f14611e82565b60ff8181168382160190811115610a6c57610a6c611e82565b5f60ff83168061205057612050611ec1565b8060ff84160691505092915050565b60ff8281168282160390811115610a6c57610a6c611e82565b604081525f61208a6040830185611f58565b905067ffffffffffffffff19831660208301529392505050565b600181815b808511156120de57815f19048211156120c4576120c4611e82565b808516156120d157918102915b93841c93908002906120a9565b509250929050565b5f826120f457506001610a6c565b8161210057505f610a6c565b816001811461211657600281146121205761213c565b6001915050610a6c565b60ff84111561213157612131611e82565b50506001821b610a6c565b5060208310610133831016604e8410600b841016171561215f575081810a610a6c565b61216983836120a4565b805f190482111561217c5761217c611e82565b029392505050565b5f611dc360ff8416836120e6565b5f826121a0576121a0611ec1565b500690565b5f6020808352835180828501525f5b818110156121d0578581018301518582016040015282016121b4565b505f604082860101526040601f19601f8301168501019250505092915050565b600782810b9082900b037fffffffffffffffffffffffffffffffffffffffffffffffff80000000000000008112677fffffffffffffff82131715610a6c57610a6c611e82565b5f81810b9083900b01607f8113607f1982121715610a6c57610a6c611e82565b5f82810b9082900b03607f198112607f82131715610a6c57610a6c611e82565b8082018281125f83128015821682158216171561229557612295611e82565b505092915050565b5f7f800000000000000000000000000000000000000000000000000000000000000082036122cd576122cd611e82565b505f19019056fea2646970667358221220d7bbefc6279a657f8e608a154af90397641f6155495f9eaaa39d646c41fd95af64736f6c63430008140033b53127684a568b3173ae13b9f8a6016e243e63b6e8ee1178d6a717850b5d6103ec99e9b645e0d752776aecb3a31c64ae23b491afeae29a072a0eaa66aa9a3862",
  "devdoc": {
    "kind": "dev",
    "methods": {},
    "version": 1
  },
  "userdoc": {
    "kind": "user",
    "methods": {},
    "version": 1
  },
  "storageLayout": {
    "storage": [
      {
        "astId": 9801,
        "contract": "src/TimeControlledDungeon.sol:TimeControlledDungeon",
        "label": "goldBattles",
        "offset": 0,
        "slot": "0",
        "type": "t_mapping(t_uint256,t_mapping(t_uint256,t_struct(GoldBattle)9767_storage))"
      },
      {
        "astId": 9808,
        "contract": "src/TimeControlledDungeon.sol:TimeControlledDungeon",
        "label": "monsterBattles",
        "offset": 0,
        "slot": "1",
        "type": "t_mapping(t_uint256,t_mapping(t_uint256,t_struct(MonsterBattle)9770_storage))"
      },
      {
        "astId": 9812,
        "contract": "src/TimeControlledDungeon.sol:TimeControlledDungeon",
        "label": "monsterClaims",
        "offset": 0,
        "slot": "2",
        "type": "t_mapping(t_uint256,t_uint256)"
      },
      {
        "astId": 9817,
        "contract": "src/TimeControlledDungeon.sol:TimeControlledDungeon",
        "label": "characters",
        "offset": 0,
        "slot": "3",
        "type": "t_mapping(t_uint256,t_struct(Character)9762_storage)"
      },
      {
        "astId": 9821,
        "contract": "src/TimeControlledDungeon.sol:TimeControlledDungeon",
        "label": "owners",
        "offset": 0,
        "slot": "4",
        "type": "t_mapping(t_uint256,t_address)"
      },
      {
        "astId": 9826,
        "contract": "src/TimeControlledDungeon.sol:TimeControlledDungeon",
        "label": "commitments",
        "offset": 0,
        "slot": "5",
        "type": "t_mapping(t_uint256,t_struct(Commitment)9775_storage)"
      },
      {
        "astId": 9828,
        "contract": "src/TimeControlledDungeon.sol:TimeControlledDungeon",
        "label": "epochHash_0",
        "offset": 0,
        "slot": "6",
        "type": "t_bytes32"
      },
      {
        "astId": 9830,
        "contract": "src/TimeControlledDungeon.sol:TimeControlledDungeon",
        "label": "epochHash_1",
        "offset": 0,
        "slot": "7",
        "type": "t_bytes32"
      }
    ],
    "types": {
      "t_address": {
        "encoding": "inplace",
        "label": "address",
        "numberOfBytes": "20"
      },
      "t_bytes24": {
        "encoding": "inplace",
        "label": "bytes24",
        "numberOfBytes": "24"
      },
      "t_bytes32": {
        "encoding": "inplace",
        "label": "bytes32",
        "numberOfBytes": "32"
      },
      "t_mapping(t_uint256,t_address)": {
        "encoding": "mapping",
        "key": "t_uint256",
        "label": "mapping(uint256 => address)",
        "numberOfBytes": "32",
        "value": "t_address"
      },
      "t_mapping(t_uint256,t_mapping(t_uint256,t_struct(GoldBattle)9767_storage))": {
        "encoding": "mapping",
        "key": "t_uint256",
        "label": "mapping(uint256 => mapping(uint256 => struct Dungeon.GoldBattle))",
        "numberOfBytes": "32",
        "value": "t_mapping(t_uint256,t_struct(GoldBattle)9767_storage)"
      },
      "t_mapping(t_uint256,t_mapping(t_uint256,t_struct(MonsterBattle)9770_storage))": {
        "encoding": "mapping",
        "key": "t_uint256",
        "label": "mapping(uint256 => mapping(uint256 => struct Dungeon.MonsterBattle))",
        "numberOfBytes": "32",
        "value": "t_mapping(t_uint256,t_struct(MonsterBattle)9770_storage)"
      },
      "t_mapping(t_uint256,t_struct(Character)9762_storage)": {
        "encoding": "mapping",
        "key": "t_uint256",
        "label": "mapping(uint256 => struct Dungeon.Character)",
        "numberOfBytes": "32",
        "value": "t_struct(Character)9762_storage"
      },
      "t_mapping(t_uint256,t_struct(Commitment)9775_storage)": {
        "encoding": "mapping",
        "key": "t_uint256",
        "label": "mapping(uint256 => struct Dungeon.Commitment)",
        "numberOfBytes": "32",
        "value": "t_struct(Commitment)9775_storage"
      },
      "t_mapping(t_uint256,t_struct(GoldBattle)9767_storage)": {
        "encoding": "mapping",
        "key": "t_uint256",
        "label": "mapping(uint256 => struct Dungeon.GoldBattle)",
        "numberOfBytes": "32",
        "value": "t_struct(GoldBattle)9767_storage"
      },
      "t_mapping(t_uint256,t_struct(MonsterBattle)9770_storage)": {
        "encoding": "mapping",
        "key": "t_uint256",
        "label": "mapping(uint256 => struct Dungeon.MonsterBattle)",
        "numberOfBytes": "32",
        "value": "t_struct(MonsterBattle)9770_storage"
      },
      "t_mapping(t_uint256,t_uint256)": {
        "encoding": "mapping",
        "key": "t_uint256",
        "label": "mapping(uint256 => uint256)",
        "numberOfBytes": "32",
        "value": "t_uint256"
      },
      "t_struct(Character)9762_storage": {
        "encoding": "inplace",
        "label": "struct Dungeon.Character",
        "members": [
          {
            "astId": 9753,
            "contract": "src/TimeControlledDungeon.sol:TimeControlledDungeon",
            "label": "position",
            "offset": 0,
            "slot": "0",
            "type": "t_uint256"
          },
          {
            "astId": 9755,
            "contract": "src/TimeControlledDungeon.sol:TimeControlledDungeon",
            "label": "gold",
            "offset": 0,
            "slot": "1",
            "type": "t_uint256"
          },
          {
            "astId": 9757,
            "contract": "src/TimeControlledDungeon.sol:TimeControlledDungeon",
            "label": "life",
            "offset": 0,
            "slot": "2",
            "type": "t_uint8"
          },
          {
            "astId": 9759,
            "contract": "src/TimeControlledDungeon.sol:TimeControlledDungeon",
            "label": "equipment",
            "offset": 0,
            "slot": "3",
            "type": "t_bytes32"
          },
          {
            "astId": 9761,
            "contract": "src/TimeControlledDungeon.sol:TimeControlledDungeon",
            "label": "combatStanceAvailable",
            "offset": 0,
            "slot": "4",
            "type": "t_uint16"
          }
        ],
        "numberOfBytes": "160"
      },
      "t_struct(Commitment)9775_storage": {
        "encoding": "inplace",
        "label": "struct Dungeon.Commitment",
        "members": [
          {
            "astId": 9772,
            "contract": "src/TimeControlledDungeon.sol:TimeControlledDungeon",
            "label": "hash",
            "offset": 0,
            "slot": "0",
            "type": "t_bytes24"
          },
          {
            "astId": 9774,
            "contract": "src/TimeControlledDungeon.sol:TimeControlledDungeon",
            "label": "epoch",
            "offset": 24,
            "slot": "0",
            "type": "t_uint32"
          }
        ],
        "numberOfBytes": "32"
      },
      "t_struct(GoldBattle)9767_storage": {
        "encoding": "inplace",
        "label": "struct Dungeon.GoldBattle",
        "members": [
          {
            "astId": 9764,
            "contract": "src/TimeControlledDungeon.sol:TimeControlledDungeon",
            "label": "currentWinner",
            "offset": 0,
            "slot": "0",
            "type": "t_uint256"
          },
          {
            "astId": 9766,
            "contract": "src/TimeControlledDungeon.sol:TimeControlledDungeon",
            "label": "combatStance",
            "offset": 0,
            "slot": "1",
            "type": "t_uint16"
          }
        ],
        "numberOfBytes": "64"
      },
      "t_struct(MonsterBattle)9770_storage": {
        "encoding": "inplace",
        "label": "struct Dungeon.MonsterBattle",
        "members": [
          {
            "astId": 9769,
            "contract": "src/TimeControlledDungeon.sol:TimeControlledDungeon",
            "label": "life",
            "offset": 0,
            "slot": "0",
            "type": "t_uint256"
          }
        ],
        "numberOfBytes": "32"
      },
      "t_uint16": {
        "encoding": "inplace",
        "label": "uint16",
        "numberOfBytes": "2"
      },
      "t_uint256": {
        "encoding": "inplace",
        "label": "uint256",
        "numberOfBytes": "32"
      },
      "t_uint32": {
        "encoding": "inplace",
        "label": "uint32",
        "numberOfBytes": "4"
      },
      "t_uint8": {
        "encoding": "inplace",
        "label": "uint8",
        "numberOfBytes": "1"
      }
    }
  },
  "args_data": "0x",
  "tx_hash": "0x",
  "data": "0x"
}